:020000040000FA
:10000000680200200D030000150300001703000024
:10001000190300001B0300001D0300000000000086
:100020000000000000000000000000001F030000AE
:10003000210300000000000023030000F50600007B
:1000400027030000290300002B0300002D030000FC
:100050002F030000310300003303000035030000CC
:1000600037030000390300003B0300003D0300009C
:100070003F0300004103000043030000450300006C
:1000800047030000490300004B0300004D0300003C
:100090004F0300005103000053030000550300000C
:1000A00057030000590300005B0300005D030000DC
:1000B0005F030000610300006303000065030000AC
:1000C00067030000690300006B0300006D0300007C
:1000D0006F0300007103000073030000750300004C
:1000E0007703000079030000000000007B0300009C
:1000F0007D0300007F0300008103000083030000F4
:100100008503000087030000890300008B030000C3
:1001100000000000000000008D0300008F030000BD
:100120009103000093030000950300009703000073
:10013000990300009B0300009D0300009F03000043
:1001400000000000000000000000000000000000AF
:10015000A1030000A3030000A5030000A703000003
:10016000000000000000000000000000000000008F
:10017000000000000000000000000000000000007F
:10018000000000000000000000000000000000006F
:10019000000000000000000000000000000000005F
:1001A000000000000000000000000000000000004F
:1001B000A9030000AB030000AD030000AF03000083
:1001C000B1030000B3030000B5030000B703000053
:1001D000B9030000BB030000BD030000BF03000023
:1001E000C1030000C3030000C503000000000000BD
:1001F00000000000C7030000C9030000CB0300009B
:10020000CD030000CF03000000000000000000004C
:10021000D1030000D3030000D5030000D703000082
:10022000D9030000DB030000DD030000DF03000052
:10023000E1030000E3030000E5030000E703000022
:10024000E9030000EB030000ED030000EF030000F2
:10025000F1030000F3030000F5030000F7030000C2
:10026000F9030000FB030000FD03000000F002F8AA
:1002700000F03CF80AA090E8000C82448344AAF104
:100280000107DA4501D100F031F8AFF2090EBAE802
:100290000F0013F0010F18BFFB1A43F001031847BA
:1002A0007005000090050000103A24BF78C878C19E
:1002B000FAD8520724BF30C830C144BF04680C606C
:1002C000704700000023002400250026103A28BFB4
:1002D00078C1FBD8520728BF30C148BF0B607047B8
:1002E0001FB500F073FA1FBD10B510BD00F09BF8EC
:1002F0001146FFF7F5FF00F057FA00F0B9F803B424
:10030000FFF7F2FF03BC00F0C1F800003F48804750
:100310003F480047FEE7FEE7FEE7FEE7FEE7FEE7B1
:10032000FEE7FEE7FEE7FEE7FEE7FEE7FEE7FEE7A5
:10033000FEE7FEE7FEE7FEE7FEE7FEE7FEE7FEE795
:10034000FEE7FEE7FEE7FEE7FEE7FEE7FEE7FEE785
:10035000FEE7FEE7FEE7FEE7FEE7FEE7FEE7FEE775
:10036000FEE7FEE7FEE7FEE7FEE7FEE7FEE7FEE765
:10037000FEE7FEE7FEE7FEE7FEE7FEE7FEE7FEE755
:10038000FEE7FEE7FEE7FEE7FEE7FEE7FEE7FEE745
:10039000FEE7FEE7FEE7FEE7FEE7FEE7FEE7FEE735
:1003A000FEE7FEE7FEE7FEE7FEE7FEE7FEE7FEE725
:1003B000FEE7FEE7FEE7FEE7FEE7FEE7FEE7FEE715
:1003C000FEE7FEE7FEE7FEE7FEE7FEE7FEE7FEE705
:1003D000FEE7FEE7FEE7FEE7FEE7FEE7FEE7FEE7F5
:1003E000FEE7FEE7FEE7FEE7FEE7FEE7FEE7FEE7E5
:1003F000FEE7FEE7FEE7FEE7FEE7FEE7FEE70000BA
:1004000004480549034A054B7047000005070000F2
:100410006D020000680000206802002068000020D3
:10042000704770477047754600F02CF8AE460500DF
:100430006946534620F00700854618B020B5FFF7FF
:10044000DFFFBDE820404FF000064FF000074FF0FF
:1004500000084FF0000B21F00701AC46ACE8C009E2
:10046000ACE8C009ACE8C009ACE8C0098D467047EB
:1004700010B50446AFF300802046BDE81040FFF7FA
:100480003EBF0000004870470400002001491820CA
:10049000ABBEFEE7260002007047000070B50146C3
:1004A0000846CD1701EB5575C5F3C702CD1701EB13
:1004B0005575ED10A1EBC505EBB20E4850F82200C2
:1004C00000F57F709D1C0126AE408059C4B20948DA
:1004D00050F82200D0F8FC0301259D406840054DEE
:1004E00055F82250C5F8FC0384F001009840C0B2D2
:1004F00070BD0000D807000030B50022CDE002EB4F
:100500008203684CE35CD80802EB8203E35C03F0EF
:100510000701654B654C54F82040C4F82035634B07
:1005200053F82030D3F8243501248C4023435F4C0A
:1005300054F82040C4F8243502EB8203594C23447C
:100540005B78D3B9594B53F82030D3F81C350124CC
:100550008C40A343554C54F82040C4F81C35534BF1
:1005600053F82030D3F81C3501248C4023434F4CE2
:1005700054F82040C4F81C3500BF00BF4B4B53F863
:100580002030D3F8003401248C40A343474C54F866
:100590002040C4F80034454B53F82030D3F80044D1
:1005A00002EB82033F4D2B449B788B401C433F4B17
:1005B00053F82030C3F8004402EB82032C46234456
:1005C000DB7833B1012B12D0022B1ED0032B2BD1A1
:1005D00029E0364B53F82030D3F8104501238B40E7
:1005E0001C43324B53F82030C3F810451CE02F4B0E
:1005F00053F82030D3F8143501248C4023432B4C7E
:1006000054F82040C4F814350EE0284B53F820303D
:10061000D3F80C4501238B401C43244B53F8203066
:10062000C3F80C4500E000BF00BF02EB82031D4C85
:1006300023441B7923B1012B10D0022B2AD11BE0BC
:100640001A4B53F82030D3F8003501248C40234353
:10065000164C54F82040C4F800351BE0134B53F8F7
:100660002030D3F8043501248C4023430F4C54F838
:100670002040C4F804350DE00C4B53F82030D3F87B
:10068000083501248C402343084C54F82040C4F81A
:10069000083500BF00BF531CDAB2012AFFF62FAFA6
:1006A00030BD0000080800004B434F4CF00700002D
:1006B0000348006840F020000149086070470000CE
:1006C00008E60F400348006E20F00100014908666B
:1006D0007047000000E00F404FF0E0214861032127
:1006E0004FF0E02211617047014908607047000037
:1006F0000000002010B502480068804710BD0000CF
:10070000000000201B49096841F47001194A11607A
:1007100019491A4A11671A4911661A4911661A4984
:100720001167002000E0401CB0F57A7FFBD3174929
:10073000124A116616491167002000E0401CB0F50E
:100740007A7FFBD313490D4A116600BF0B49096D2F
:1007500001F040014029F9D10F49084A11664FF0D4
:10076000C0711167002000E0401C42F21071884205
:10077000FAD3704788ED00E01028800700E00F40B2
:10078000D13A8E07422D9E0100288001420D9E0124
:1007900000088001420DDE014205DE0110B52A206D
:1007A000FFF77CFE10BD0000FFF78CFFFFF780FF16
:1007B000FFF7A2FE06E043F67F60FFF78DFF0248D9
:1007C000FFF792FFF7E700009D0700004FF0407031
:1007D000E1EE100A704700000080054000900540DF
:1007E00000A0054000B0054000C0054000D0054015
:1007F000008005400090054000A0054000B0054085
:1008000000C0054000D005402A00010300000000A0
:10081000300800000000002004000000A8020000D2
:10082000340800000400002064020000C40200003C
:0408300000000000C4
:040000050000026D88
:00000001FF
